{
  "_format": "hh-sol-artifact-1",
  "contractName": "NFTArena",
  "sourceName": "contracts/NFTArena.sol",
  "abi": [
    {
      "inputs": [
        {
          "internalType": "uint256",
          "name": "subscriptionId",
          "type": "uint256"
        },
        {
          "internalType": "address",
          "name": "vrfCoordinator",
          "type": "address"
        },
        {
          "internalType": "bytes32",
          "name": "_keyHash",
          "type": "bytes32"
        }
      ],
      "stateMutability": "nonpayable",
      "type": "constructor"
    },
    {
      "inputs": [
        {
          "internalType": "address",
          "name": "sender",
          "type": "address"
        },
        {
          "internalType": "uint256",
          "name": "tokenId",
          "type": "uint256"
        },
        {
          "internalType": "address",
          "name": "owner",
          "type": "address"
        }
      ],
      "name": "ERC721IncorrectOwner",
      "type": "error"
    },
    {
      "inputs": [
        {
          "internalType": "address",
          "name": "operator",
          "type": "address"
        },
        {
          "internalType": "uint256",
          "name": "tokenId",
          "type": "uint256"
        }
      ],
      "name": "ERC721InsufficientApproval",
      "type": "error"
    },
    {
      "inputs": [
        {
          "internalType": "address",
          "name": "approver",
          "type": "address"
        }
      ],
      "name": "ERC721InvalidApprover",
      "type": "error"
    },
    {
      "inputs": [
        {
          "internalType": "address",
          "name": "operator",
          "type": "address"
        }
      ],
      "name": "ERC721InvalidOperator",
      "type": "error"
    },
    {
      "inputs": [
        {
          "internalType": "address",
          "name": "owner",
          "type": "address"
        }
      ],
      "name": "ERC721InvalidOwner",
      "type": "error"
    },
    {
      "inputs": [
        {
          "internalType": "address",
          "name": "receiver",
          "type": "address"
        }
      ],
      "name": "ERC721InvalidReceiver",
      "type": "error"
    },
    {
      "inputs": [
        {
          "internalType": "address",
          "name": "sender",
          "type": "address"
        }
      ],
      "name": "ERC721InvalidSender",
      "type": "error"
    },
    {
      "inputs": [
        {
          "internalType": "uint256",
          "name": "tokenId",
          "type": "uint256"
        }
      ],
      "name": "ERC721NonexistentToken",
      "type": "error"
    },
    {
      "inputs": [
        {
          "internalType": "address",
          "name": "have",
          "type": "address"
        },
        {
          "internalType": "address",
          "name": "want",
          "type": "address"
        }
      ],
      "name": "OnlyCoordinatorCanFulfill",
      "type": "error"
    },
    {
      "inputs": [
        {
          "internalType": "address",
          "name": "owner",
          "type": "address"
        }
      ],
      "name": "OwnableInvalidOwner",
      "type": "error"
    },
    {
      "inputs": [
        {
          "internalType": "address",
          "name": "account",
          "type": "address"
        }
      ],
      "name": "OwnableUnauthorizedAccount",
      "type": "error"
    },
    {
      "inputs": [],
      "name": "ReentrancyGuardReentrantCall",
      "type": "error"
    },
    {
      "anonymous": false,
      "inputs": [
        {
          "indexed": true,
          "internalType": "address",
          "name": "owner",
          "type": "address"
        },
        {
          "indexed": true,
          "internalType": "address",
          "name": "approved",
          "type": "address"
        },
        {
          "indexed": true,
          "internalType": "uint256",
          "name": "tokenId",
          "type": "uint256"
        }
      ],
      "name": "Approval",
      "type": "event"
    },
    {
      "anonymous": false,
      "inputs": [
        {
          "indexed": true,
          "internalType": "address",
          "name": "owner",
          "type": "address"
        },
        {
          "indexed": true,
          "internalType": "address",
          "name": "operator",
          "type": "address"
        },
        {
          "indexed": false,
          "internalType": "bool",
          "name": "approved",
          "type": "bool"
        }
      ],
      "name": "ApprovalForAll",
      "type": "event"
    },
    {
      "anonymous": false,
      "inputs": [
        {
          "indexed": false,
          "internalType": "uint256",
          "name": "_fromTokenId",
          "type": "uint256"
        },
        {
          "indexed": false,
          "internalType": "uint256",
          "name": "_toTokenId",
          "type": "uint256"
        }
      ],
      "name": "BatchMetadataUpdate",
      "type": "event"
    },
    {
      "anonymous": false,
      "inputs": [
        {
          "indexed": true,
          "internalType": "address",
          "name": "player",
          "type": "address"
        },
        {
          "indexed": false,
          "internalType": "uint256",
          "name": "tokenId",
          "type": "uint256"
        },
        {
          "indexed": false,
          "internalType": "string",
          "name": "category",
          "type": "string"
        }
      ],
      "name": "BattleEntered",
      "type": "event"
    },
    {
      "anonymous": false,
      "inputs": [
        {
          "indexed": true,
          "internalType": "address",
          "name": "winner",
          "type": "address"
        },
        {
          "indexed": false,
          "internalType": "uint256",
          "name": "tokenId",
          "type": "uint256"
        },
        {
          "indexed": false,
          "internalType": "string",
          "name": "category",
          "type": "string"
        },
        {
          "indexed": false,
          "internalType": "string",
          "name": "tokenURI",
          "type": "string"
        },
        {
          "indexed": false,
          "internalType": "uint256",
          "name": "reward",
          "type": "uint256"
        }
      ],
      "name": "BattleWinnerDeclared",
      "type": "event"
    },
    {
      "anonymous": false,
      "inputs": [
        {
          "indexed": false,
          "internalType": "uint256",
          "name": "_tokenId",
          "type": "uint256"
        }
      ],
      "name": "MetadataUpdate",
      "type": "event"
    },
    {
      "anonymous": false,
      "inputs": [
        {
          "indexed": true,
          "internalType": "address",
          "name": "previousOwner",
          "type": "address"
        },
        {
          "indexed": true,
          "internalType": "address",
          "name": "newOwner",
          "type": "address"
        }
      ],
      "name": "OwnershipTransferred",
      "type": "event"
    },
    {
      "anonymous": false,
      "inputs": [
        {
          "indexed": true,
          "internalType": "uint256",
          "name": "requestId",
          "type": "uint256"
        },
        {
          "indexed": true,
          "internalType": "uint256",
          "name": "battleId",
          "type": "uint256"
        }
      ],
      "name": "RandomnessRequested",
      "type": "event"
    },
    {
      "anonymous": false,
      "inputs": [
        {
          "indexed": true,
          "internalType": "uint256",
          "name": "tokenId",
          "type": "uint256"
        },
        {
          "indexed": false,
          "internalType": "address",
          "name": "owner",
          "type": "address"
        },
        {
          "indexed": false,
          "internalType": "address",
          "name": "seller",
          "type": "address"
        },
        {
          "indexed": false,
          "internalType": "uint256",
          "name": "price",
          "type": "uint256"
        },
        {
          "indexed": false,
          "internalType": "bool",
          "name": "currentlyListed",
          "type": "bool"
        },
        {
          "indexed": false,
          "internalType": "enum NFTArena.NFTCategory",
          "name": "category",
          "type": "uint8"
        }
      ],
      "name": "TokenListedSuccess",
      "type": "event"
    },
    {
      "anonymous": false,
      "inputs": [
        {
          "indexed": true,
          "internalType": "address",
          "name": "from",
          "type": "address"
        },
        {
          "indexed": true,
          "internalType": "address",
          "name": "to",
          "type": "address"
        },
        {
          "indexed": true,
          "internalType": "uint256",
          "name": "tokenId",
          "type": "uint256"
        }
      ],
      "name": "Transfer",
      "type": "event"
    },
    {
      "stateMutability": "payable",
      "type": "fallback"
    },
    {
      "inputs": [
        {
          "internalType": "address",
          "name": "to",
          "type": "address"
        },
        {
          "internalType": "uint256",
          "name": "tokenId",
          "type": "uint256"
        }
      ],
      "name": "approve",
      "outputs": [],
      "stateMutability": "nonpayable",
      "type": "function"
    },
    {
      "inputs": [
        {
          "internalType": "address",
          "name": "owner",
          "type": "address"
        }
      ],
      "name": "balanceOf",
      "outputs": [
        {
          "internalType": "uint256",
          "name": "",
          "type": "uint256"
        }
      ],
      "stateMutability": "view",
      "type": "function"
    },
    {
      "inputs": [],
      "name": "battleId",
      "outputs": [
        {
          "internalType": "uint256",
          "name": "",
          "type": "uint256"
        }
      ],
      "stateMutability": "view",
      "type": "function"
    },
    {
      "inputs": [
        {
          "internalType": "uint256",
          "name": "",
          "type": "uint256"
        }
      ],
      "name": "battleWinners",
      "outputs": [
        {
          "internalType": "address",
          "name": "winner",
          "type": "address"
        },
        {
          "internalType": "uint256",
          "name": "tokenId",
          "type": "uint256"
        },
        {
          "internalType": "string",
          "name": "category",
          "type": "string"
        },
        {
          "internalType": "string",
          "name": "tokenURI",
          "type": "string"
        },
        {
          "internalType": "uint256",
          "name": "reward",
          "type": "uint256"
        }
      ],
      "stateMutability": "view",
      "type": "function"
    },
    {
      "inputs": [
        {
          "internalType": "uint256",
          "name": "",
          "type": "uint256"
        },
        {
          "internalType": "uint256",
          "name": "",
          "type": "uint256"
        }
      ],
      "name": "battles",
      "outputs": [
        {
          "internalType": "address",
          "name": "player",
          "type": "address"
        },
        {
          "internalType": "uint256",
          "name": "tokenId",
          "type": "uint256"
        },
        {
          "internalType": "string",
          "name": "name",
          "type": "string"
        }
      ],
      "stateMutability": "view",
      "type": "function"
    },
    {
      "inputs": [
        {
          "internalType": "uint256",
          "name": "tokenId",
          "type": "uint256"
        },
        {
          "internalType": "uint256",
          "name": "price",
          "type": "uint256"
        }
      ],
      "name": "createListedToken",
      "outputs": [],
      "stateMutability": "nonpayable",
      "type": "function"
    },
    {
      "inputs": [
        {
          "internalType": "uint256",
          "name": "tokenId",
          "type": "uint256"
        }
      ],
      "name": "enterBattle",
      "outputs": [],
      "stateMutability": "payable",
      "type": "function"
    },
    {
      "inputs": [
        {
          "internalType": "uint256",
          "name": "tokenId",
          "type": "uint256"
        }
      ],
      "name": "executeSale",
      "outputs": [],
      "stateMutability": "payable",
      "type": "function"
    },
    {
      "inputs": [],
      "name": "getAllNFTs",
      "outputs": [
        {
          "components": [
            {
              "internalType": "uint256",
              "name": "tokenId",
              "type": "uint256"
            },
            {
              "internalType": "address payable",
              "name": "owner",
              "type": "address"
            },
            {
              "internalType": "address payable",
              "name": "seller",
              "type": "address"
            },
            {
              "internalType": "uint256",
              "name": "price",
              "type": "uint256"
            },
            {
              "internalType": "bool",
              "name": "currentlyListed",
              "type": "bool"
            },
            {
              "internalType": "enum NFTArena.NFTCategory",
              "name": "category",
              "type": "uint8"
            }
          ],
          "internalType": "struct NFTArena.ListedToken[]",
          "name": "",
          "type": "tuple[]"
        }
      ],
      "stateMutability": "view",
      "type": "function"
    },
    {
      "inputs": [
        {
          "internalType": "uint256",
          "name": "tokenId",
          "type": "uint256"
        }
      ],
      "name": "getApproved",
      "outputs": [
        {
          "internalType": "address",
          "name": "",
          "type": "address"
        }
      ],
      "stateMutability": "view",
      "type": "function"
    },
    {
      "inputs": [
        {
          "internalType": "uint256",
          "name": "_battleId",
          "type": "uint256"
        }
      ],
      "name": "getBattleEntries",
      "outputs": [
        {
          "components": [
            {
              "internalType": "address",
              "name": "player",
              "type": "address"
            },
            {
              "internalType": "uint256",
              "name": "tokenId",
              "type": "uint256"
            },
            {
              "internalType": "string",
              "name": "name",
              "type": "string"
            }
          ],
          "internalType": "struct NFTArena.BattleEntry[]",
          "name": "",
          "type": "tuple[]"
        }
      ],
      "stateMutability": "view",
      "type": "function"
    },
    {
      "inputs": [],
      "name": "getContractBalance",
      "outputs": [
        {
          "internalType": "uint256",
          "name": "",
          "type": "uint256"
        }
      ],
      "stateMutability": "view",
      "type": "function"
    },
    {
      "inputs": [],
      "name": "getCurrentBattleId",
      "outputs": [
        {
          "internalType": "uint256",
          "name": "",
          "type": "uint256"
        }
      ],
      "stateMutability": "view",
      "type": "function"
    },
    {
      "inputs": [],
      "name": "getCurrentToken",
      "outputs": [
        {
          "internalType": "uint256",
          "name": "",
          "type": "uint256"
        }
      ],
      "stateMutability": "view",
      "type": "function"
    },
    {
      "inputs": [
        {
          "internalType": "uint256",
          "name": "tokenId",
          "type": "uint256"
        }
      ],
      "name": "getListedTokenForId",
      "outputs": [
        {
          "components": [
            {
              "internalType": "uint256",
              "name": "tokenId",
              "type": "uint256"
            },
            {
              "internalType": "address payable",
              "name": "owner",
              "type": "address"
            },
            {
              "internalType": "address payable",
              "name": "seller",
              "type": "address"
            },
            {
              "internalType": "uint256",
              "name": "price",
              "type": "uint256"
            },
            {
              "internalType": "bool",
              "name": "currentlyListed",
              "type": "bool"
            },
            {
              "internalType": "enum NFTArena.NFTCategory",
              "name": "category",
              "type": "uint8"
            }
          ],
          "internalType": "struct NFTArena.ListedToken",
          "name": "",
          "type": "tuple"
        }
      ],
      "stateMutability": "view",
      "type": "function"
    },
    {
      "inputs": [],
      "name": "getMintingPrice",
      "outputs": [
        {
          "internalType": "uint256",
          "name": "",
          "type": "uint256"
        }
      ],
      "stateMutability": "view",
      "type": "function"
    },
    {
      "inputs": [],
      "name": "getMyNFTs",
      "outputs": [
        {
          "components": [
            {
              "internalType": "uint256",
              "name": "tokenId",
              "type": "uint256"
            },
            {
              "internalType": "address payable",
              "name": "owner",
              "type": "address"
            },
            {
              "internalType": "address payable",
              "name": "seller",
              "type": "address"
            },
            {
              "internalType": "uint256",
              "name": "price",
              "type": "uint256"
            },
            {
              "internalType": "bool",
              "name": "currentlyListed",
              "type": "bool"
            },
            {
              "internalType": "enum NFTArena.NFTCategory",
              "name": "category",
              "type": "uint8"
            }
          ],
          "internalType": "struct NFTArena.ListedToken[]",
          "name": "",
          "type": "tuple[]"
        }
      ],
      "stateMutability": "view",
      "type": "function"
    },
    {
      "inputs": [],
      "name": "getTotalETHStaked",
      "outputs": [
        {
          "internalType": "uint256",
          "name": "",
          "type": "uint256"
        }
      ],
      "stateMutability": "view",
      "type": "function"
    },
    {
      "inputs": [],
      "name": "getTotalItemsSold",
      "outputs": [
        {
          "internalType": "uint256",
          "name": "",
          "type": "uint256"
        }
      ],
      "stateMutability": "view",
      "type": "function"
    },
    {
      "inputs": [
        {
          "internalType": "uint256",
          "name": "_battleId",
          "type": "uint256"
        }
      ],
      "name": "getWinnerDetails",
      "outputs": [
        {
          "components": [
            {
              "internalType": "address",
              "name": "winner",
              "type": "address"
            },
            {
              "internalType": "uint256",
              "name": "tokenId",
              "type": "uint256"
            },
            {
              "internalType": "string",
              "name": "category",
              "type": "string"
            },
            {
              "internalType": "string",
              "name": "tokenURI",
              "type": "string"
            },
            {
              "internalType": "uint256",
              "name": "reward",
              "type": "uint256"
            }
          ],
          "internalType": "struct NFTArena.BattleWinnerDetails",
          "name": "",
          "type": "tuple"
        }
      ],
      "stateMutability": "view",
      "type": "function"
    },
    {
      "inputs": [
        {
          "internalType": "uint256",
          "name": "",
          "type": "uint256"
        },
        {
          "internalType": "address",
          "name": "",
          "type": "address"
        }
      ],
      "name": "hasEnteredBattle",
      "outputs": [
        {
          "internalType": "bool",
          "name": "",
          "type": "bool"
        }
      ],
      "stateMutability": "view",
      "type": "function"
    },
    {
      "inputs": [
        {
          "internalType": "address",
          "name": "owner",
          "type": "address"
        },
        {
          "internalType": "address",
          "name": "operator",
          "type": "address"
        }
      ],
      "name": "isApprovedForAll",
      "outputs": [
        {
          "internalType": "bool",
          "name": "",
          "type": "bool"
        }
      ],
      "stateMutability": "view",
      "type": "function"
    },
    {
      "inputs": [
        {
          "internalType": "uint256",
          "name": "_battleId",
          "type": "uint256"
        }
      ],
      "name": "isBattlePending",
      "outputs": [
        {
          "internalType": "bool",
          "name": "",
          "type": "bool"
        }
      ],
      "stateMutability": "view",
      "type": "function"
    },
    {
      "inputs": [
        {
          "internalType": "string",
          "name": "tokenURI",
          "type": "string"
        },
        {
          "internalType": "enum NFTArena.NFTCategory",
          "name": "category",
          "type": "uint8"
        }
      ],
      "name": "mintToken",
      "outputs": [
        {
          "internalType": "uint256",
          "name": "",
          "type": "uint256"
        }
      ],
      "stateMutability": "payable",
      "type": "function"
    },
    {
      "inputs": [],
      "name": "mintingPrice",
      "outputs": [
        {
          "internalType": "uint256",
          "name": "",
          "type": "uint256"
        }
      ],
      "stateMutability": "view",
      "type": "function"
    },
    {
      "inputs": [],
      "name": "name",
      "outputs": [
        {
          "internalType": "string",
          "name": "",
          "type": "string"
        }
      ],
      "stateMutability": "view",
      "type": "function"
    },
    {
      "inputs": [],
      "name": "owner",
      "outputs": [
        {
          "internalType": "address",
          "name": "",
          "type": "address"
        }
      ],
      "stateMutability": "view",
      "type": "function"
    },
    {
      "inputs": [
        {
          "internalType": "uint256",
          "name": "tokenId",
          "type": "uint256"
        }
      ],
      "name": "ownerOf",
      "outputs": [
        {
          "internalType": "address",
          "name": "",
          "type": "address"
        }
      ],
      "stateMutability": "view",
      "type": "function"
    },
    {
      "inputs": [
        {
          "internalType": "uint256",
          "name": "requestId",
          "type": "uint256"
        },
        {
          "internalType": "uint256[]",
          "name": "randomWords",
          "type": "uint256[]"
        }
      ],
      "name": "rawFulfillRandomWords",
      "outputs": [],
      "stateMutability": "nonpayable",
      "type": "function"
    },
    {
      "inputs": [],
      "name": "renounceOwnership",
      "outputs": [],
      "stateMutability": "nonpayable",
      "type": "function"
    },
    {
      "inputs": [],
      "name": "requestRandomWinner",
      "outputs": [
        {
          "internalType": "uint256",
          "name": "requestId",
          "type": "uint256"
        }
      ],
      "stateMutability": "nonpayable",
      "type": "function"
    },
    {
      "inputs": [
        {
          "internalType": "address",
          "name": "from",
          "type": "address"
        },
        {
          "internalType": "address",
          "name": "to",
          "type": "address"
        },
        {
          "internalType": "uint256",
          "name": "tokenId",
          "type": "uint256"
        }
      ],
      "name": "safeTransferFrom",
      "outputs": [],
      "stateMutability": "nonpayable",
      "type": "function"
    },
    {
      "inputs": [
        {
          "internalType": "address",
          "name": "from",
          "type": "address"
        },
        {
          "internalType": "address",
          "name": "to",
          "type": "address"
        },
        {
          "internalType": "uint256",
          "name": "tokenId",
          "type": "uint256"
        },
        {
          "internalType": "bytes",
          "name": "data",
          "type": "bytes"
        }
      ],
      "name": "safeTransferFrom",
      "outputs": [],
      "stateMutability": "nonpayable",
      "type": "function"
    },
    {
      "inputs": [
        {
          "internalType": "address",
          "name": "operator",
          "type": "address"
        },
        {
          "internalType": "bool",
          "name": "approved",
          "type": "bool"
        }
      ],
      "name": "setApprovalForAll",
      "outputs": [],
      "stateMutability": "nonpayable",
      "type": "function"
    },
    {
      "inputs": [
        {
          "internalType": "bytes4",
          "name": "interfaceId",
          "type": "bytes4"
        }
      ],
      "name": "supportsInterface",
      "outputs": [
        {
          "internalType": "bool",
          "name": "",
          "type": "bool"
        }
      ],
      "stateMutability": "view",
      "type": "function"
    },
    {
      "inputs": [],
      "name": "symbol",
      "outputs": [
        {
          "internalType": "string",
          "name": "",
          "type": "string"
        }
      ],
      "stateMutability": "view",
      "type": "function"
    },
    {
      "inputs": [
        {
          "internalType": "uint256",
          "name": "_battleId",
          "type": "uint256"
        },
        {
          "internalType": "uint256",
          "name": "mockRandomNumber",
          "type": "uint256"
        }
      ],
      "name": "testDeclareWinner",
      "outputs": [],
      "stateMutability": "nonpayable",
      "type": "function"
    },
    {
      "inputs": [
        {
          "internalType": "uint256",
          "name": "tokenId",
          "type": "uint256"
        }
      ],
      "name": "tokenURI",
      "outputs": [
        {
          "internalType": "string",
          "name": "",
          "type": "string"
        }
      ],
      "stateMutability": "view",
      "type": "function"
    },
    {
      "inputs": [],
      "name": "totalETHStaked",
      "outputs": [
        {
          "internalType": "uint256",
          "name": "",
          "type": "uint256"
        }
      ],
      "stateMutability": "view",
      "type": "function"
    },
    {
      "inputs": [
        {
          "internalType": "address",
          "name": "from",
          "type": "address"
        },
        {
          "internalType": "address",
          "name": "to",
          "type": "address"
        },
        {
          "internalType": "uint256",
          "name": "tokenId",
          "type": "uint256"
        }
      ],
      "name": "transferFrom",
      "outputs": [],
      "stateMutability": "nonpayable",
      "type": "function"
    },
    {
      "inputs": [
        {
          "internalType": "address",
          "name": "newOwner",
          "type": "address"
        }
      ],
      "name": "transferOwnership",
      "outputs": [],
      "stateMutability": "nonpayable",
      "type": "function"
    },
    {
      "inputs": [
        {
          "internalType": "uint256",
          "name": "_listPrice",
          "type": "uint256"
        }
      ],
      "name": "updateMintingPrice",
      "outputs": [],
      "stateMutability": "nonpayable",
      "type": "function"
    },
    {
      "inputs": [
        {
          "internalType": "uint256",
          "name": "subscriptionId",
          "type": "uint256"
        },
        {
          "internalType": "bytes32",
          "name": "_keyHash",
          "type": "bytes32"
        },
        {
          "internalType": "uint32",
          "name": "_callbackGasLimit",
          "type": "uint32"
        },
        {
          "internalType": "uint16",
          "name": "_requestConfirmations",
          "type": "uint16"
        }
      ],
      "name": "updateVRFConfig",
      "outputs": [],
      "stateMutability": "nonpayable",
      "type": "function"
    },
    {
      "stateMutability": "payable",
      "type": "receive"
    }
  ],
  "bytecode": "0x60a0604052600c80546001600160501b03191666010003000186a01790556402540be400600f5534801561003257600080fd5b506040516139523803806139528339810160408190526100519161017a565b81336040518060400160405280600e81526020016d4e46544d61726b6574706c61636560901b815250604051806040016040528060048152602001634e46544d60e01b81525081600090816100a6919061025f565b5060016100b3828261025f565b50506001600755506001600160a01b0381166100e957604051631e4fbdf760e01b81526000600482015260240160405180910390fd5b6100f281610128565b506001600160a01b03908116608052600980546001600160a01b0319169390911692909217909155600a91909155600b5561031d565b600880546001600160a01b038381166001600160a01b0319831681179093556040519116919082907f8be0079c531659141344cd1fd0a4f28419497f9722a3daafe3b4186f6b6457e090600090a35050565b60008060006060848603121561018f57600080fd5b835160208501519093506001600160a01b03811681146101ae57600080fd5b80925050604084015190509250925092565b634e487b7160e01b600052604160045260246000fd5b600181811c908216806101ea57607f821691505b60208210810361020a57634e487b7160e01b600052602260045260246000fd5b50919050565b601f82111561025a57806000526020600020601f840160051c810160208510156102375750805b601f840160051c820191505b818110156102575760008155600101610243565b50505b505050565b81516001600160401b03811115610278576102786101c0565b61028c8161028684546101d6565b84610210565b6020601f8211600181146102c057600083156102a85750848201515b600019600385901b1c1916600184901b178455610257565b600084815260208120601f198516915b828110156102f057878501518255602094850194600190920191016102d0565b508482101561030e5786840151600019600387901b60f8161c191681555b50505050600190811b01905550565b60805161361361033f600039600081816108a301526108e501526136136000f3fe6080604052600436106102475760003560e01c8063715018a6116101385780639b1225c4116100b0578063c275a5b711610077578063c275a5b714610704578063c87b56dd14610719578063e0391b0914610739578063e985e9c51461074e578063ef2d17461461076e578063f2fde38b1461078357005b80639b1225c41461066e578063a22cb46514610681578063ac8dd23f146106a1578063b88d4fde146106b4578063c1bb4727146106d457005b80638953f4f2116100ff5780638953f4f2146105b55780638d1f73a7146105ca5780638da5cb5b146105dd5780638e264590146105fb57806395d89b4114610628578063994ea28b1461063d57005b8063715018a614610529578063717d68141461053e57806377d247621461056b5780637ad86a8b14610580578063877bf83d146105a057005b80634a91e536116101cb57806361bc37f51161019257806361bc37f51461046f578063629cb2e4146104855780636352211e146104a757806368b1d54f146104c75780636f9fb98a146104f657806370a082311461050957005b80634a91e536146103cd578063522a1f0b146103fa57806355524f561461040f5780635788ff361461042f5780636120d3951461044f57005b80631fe543e31161020f5780631fe543e31461031c57806323b872dd1461033c578063303fdf591461035c57806335db70b51461039757806342842e0e146103ad57005b806301a1b7781461024957806301ffc9a71461027257806306fdde03146102a2578063081812fc146102c4578063095ea7b3146102fc575b005b34801561025557600080fd5b5061025f60115481565b6040519081526020015b60405180910390f35b34801561027e57600080fd5b5061029261028d366004612bd6565b6107a3565b6040519015158152602001610269565b3480156102ae57600080fd5b506102b76107ce565b6040516102699190612c43565b3480156102d057600080fd5b506102e46102df366004612c56565b610860565b6040516001600160a01b039091168152602001610269565b34801561030857600080fd5b50610247610317366004612c8b565b610889565b34801561032857600080fd5b50610247610337366004612cfc565b610898565b34801561034857600080fd5b50610247610357366004612db9565b610921565b34801561036857600080fd5b50610292610377366004612df6565b601760209081526000928352604080842090915290825290205460ff1681565b3480156103a357600080fd5b5061025f600f5481565b3480156103b957600080fd5b506102476103c8366004612db9565b6109ac565b3480156103d957600080fd5b506103ed6103e8366004612c56565b6109cc565b6040516102699190612e22565b34801561040657600080fd5b5061025f610b76565b34801561041b57600080fd5b5061024761042a366004612e8e565b610d4f565b34801561043b57600080fd5b5061024761044a366004612c56565b610ec5565b34801561045b57600080fd5b5061024761046a366004612e8e565b610ed2565b34801561047b57600080fd5b5061025f60105481565b34801561049157600080fd5b5061049a610ee4565b6040516102699190612f38565b3480156104b357600080fd5b506102e46104c2366004612c56565b6110e3565b3480156104d357600080fd5b506104e76104e2366004612e8e565b6110ee565b60405161026993929190612f86565b34801561050257600080fd5b504761025f565b34801561051557600080fd5b5061025f610524366004612fb6565b6111c4565b34801561053557600080fd5b5061024761120c565b34801561054a57600080fd5b5061055e610559366004612c56565b611220565b6040516102699190612fd1565b34801561057757600080fd5b50600f5461025f565b34801561058c57600080fd5b5061024761059b366004613060565b611344565b3480156105ac57600080fd5b50600e5461025f565b3480156105c157600080fd5b5060115461025f565b61025f6105d8366004613116565b611388565b3480156105e957600080fd5b506008546001600160a01b03166102e4565b34801561060757600080fd5b5061061b610616366004612c56565b611517565b6040516102699190613180565b34801561063457600080fd5b506102b76115b9565b34801561064957600080fd5b5061065d610658366004612c56565b6115c8565b60405161026995949392919061318e565b61024761067c366004612c56565b611711565b34801561068d57600080fd5b5061024761069c3660046131da565b6118af565b6102476106af366004612c56565b6118ba565b3480156106c057600080fd5b506102476106cf36600461320b565b611b6c565b3480156106e057600080fd5b506102926106ef366004612c56565b60009081526013602052604090205460ff1690565b34801561071057600080fd5b5060105461025f565b34801561072557600080fd5b506102b7610734366004612c56565b611b84565b34801561074557600080fd5b5061049a611c95565b34801561075a57600080fd5b50610292610769366004613287565b611dd1565b34801561077a57600080fd5b50600d5461025f565b34801561078f57600080fd5b5061024761079e366004612fb6565b611dff565b60006001600160e01b03198216632483248360e11b14806107c857506107c882611e3a565b92915050565b6060600080546107dd906132b1565b80601f0160208091040260200160405190810160405280929190818152602001828054610809906132b1565b80156108565780601f1061082b57610100808354040283529160200191610856565b820191906000526020600020905b81548152906001019060200180831161083957829003601f168201915b5050505050905090565b600061086b82611e8a565b506000828152600460205260409020546001600160a01b03166107c8565b610894828233611ec3565b5050565b336001600160a01b037f000000000000000000000000000000000000000000000000000000000000000016146109175760405163073e64fd60e21b81523360048201526001600160a01b037f00000000000000000000000000000000000000000000000000000000000000001660248201526044015b60405180910390fd5b6108948282611ed0565b6001600160a01b03821661094b57604051633250574960e11b81526000600482015260240161090e565b6000610958838333611f08565b9050836001600160a01b0316816001600160a01b0316146109a6576040516364283d7b60e01b81526001600160a01b038086166004830152602482018490528216604482015260640161090e565b50505050565b6109c783838360405180602001604052806000815250611b6c565b505050565b610a076040518060a0016040528060006001600160a01b03168152602001600081526020016060815260200160608152602001600081525090565b600082815260166020908152604091829020825160a08101845281546001600160a01b031681526001820154928101929092526002810180549293919291840191610a51906132b1565b80601f0160208091040260200160405190810160405280929190818152602001828054610a7d906132b1565b8015610aca5780601f10610a9f57610100808354040283529160200191610aca565b820191906000526020600020905b815481529060010190602001808311610aad57829003601f168201915b50505050508152602001600382018054610ae3906132b1565b80601f0160208091040260200160405190810160405280929190818152602001828054610b0f906132b1565b8015610b5c5780601f10610b3157610100808354040283529160200191610b5c565b820191906000526020600020905b815481529060010190602001808311610b3f57829003601f168201915b505050505081526020016004820154815250509050919050565b6000610b80612001565b601154600090815260156020526040902054600110610bd65760405162461bcd60e51b81526020600482015260126024820152714e6f7420656e6f75676820706c617965727360701b604482015260640161090e565b60115460009081526013602052604090205460ff1615610c385760405162461bcd60e51b815260206004820152601f60248201527f52616e646f6d206e756d62657220616c72656164792072657175657374656400604482015260640161090e565b60115460009081526013602052604090819020805460ff19166001179055600954600b54600a54600c5493516305d3b1d360e41b8152600481019290925267ffffffffffffffff16602482015261ffff640100000000840416604482015263ffffffff8084166064830152660100000000000090930490921660848301526001600160a01b031690635d3b1d309060a4016020604051808303816000875af1158015610ce8573d6000803e3d6000fd5b505050506040513d601f19601f82011682018060405250810190610d0c91906132eb565b60115460008281526012602052604080822083905551929350909183917f3d94fecedaa4f90b8bd459797adb95f5bb11426025c5541390d9ccc1ad1b60a191a390565b610d5761202e565b60008111610da75760405162461bcd60e51b815260206004820152601f60248201527f5072696365206d7573742062652067726561746572207468616e207a65726f00604482015260640161090e565b33610db1836110e3565b6001600160a01b031614610e075760405162461bcd60e51b815260206004820152601f60248201527f596f75206d757374206f776e20746865204e465420746f206c69737420697400604482015260640161090e565b600082815260146020526040902060018082018054306001600160a01b0319918216811790925560028401805433921682179055600384018590556004909301805460ff1916909217909155610e5e919084612058565b6000828152601460205260409081902060040154905183917f74562ff4aca0f61b76e9b719261c3ed439529c9fbeb002c7ddfac9193b44800c91610eb391309133918791600191610100900460ff1690613304565b60405180910390a26108946001600755565b610ecd612001565b600f55565b610eda612001565b6108948282612108565b600d54606090600060015b828111610f5c576000818152601460205260409020600101546001600160a01b0316331480610f3757506000818152601460205260409020600201546001600160a01b031633145b15610f4a5781610f4681613358565b9250505b80610f5481613358565b915050610eef565b5060008167ffffffffffffffff811115610f7857610f78612cb5565b604051908082528060200260200182016040528015610fb157816020015b610f9e612b8d565b815260200190600190039081610f965790505b509050600060015b8481116110d9576000818152601460205260409020600101546001600160a01b031633148061100157506000818152601460205260409020600201546001600160a01b031633145b156110c757600081815260146020908152604091829020825160c0810184528154815260018201546001600160a01b03908116938201939093526002808301549093169381019390935260038101546060840152600481015460ff80821615156080860152919260a08501926101009092049091169081111561108657611086612eb0565b600281111561109757611097612eb0565b815250508383815181106110ad576110ad613371565b602002602001018190525081806110c390613358565b9250505b806110d181613358565b915050610fb9565b5090949350505050565b60006107c882611e8a565b6015602052816000526040600020818154811061110a57600080fd5b60009182526020909120600390910201805460018201546002830180546001600160a01b03909316955090935090611141906132b1565b80601f016020809104026020016040519081016040528092919081815260200182805461116d906132b1565b80156111ba5780601f1061118f576101008083540402835291602001916111ba565b820191906000526020600020905b81548152906001019060200180831161119d57829003601f168201915b5050505050905083565b60006001600160a01b0382166111f0576040516322718ad960e21b81526000600482015260240161090e565b506001600160a01b031660009081526003602052604090205490565b611214612001565b61121e600061240a565b565b606060156000838152602001908152602001600020805480602002602001604051908101604052809291908181526020016000905b82821015611339576000848152602090819020604080516060810182526003860290920180546001600160a01b03168352600181015493830193909352600283018054929392918401916112a8906132b1565b80601f01602080910402602001604051908101604052809291908181526020018280546112d4906132b1565b80156113215780601f106112f657610100808354040283529160200191611321565b820191906000526020600020905b81548152906001019060200180831161130457829003601f168201915b50505050508152505081526020019060010190611255565b505050509050919050565b61134c612001565b600a93909355600b91909155600c805461ffff9093166401000000000265ffffffffffff1990931663ffffffff90921691909117919091179055565b600061139261202e565b600f543410156113e45760405162461bcd60e51b815260206004820152601760248201527f4e6f7420656e6f7567682045544820746f206d696e7421000000000000000000604482015260640161090e565b600d80549060006113f483613358565b9091555050600d54611406338261245c565b6114108185612476565b6040518060c00160405280828152602001336001600160a01b0316815260200160006001600160a01b031681526020016000815260200160001515815260200184600281111561146257611462612eb0565b905260008281526014602090815260409182902083518155908301516001820180546001600160a01b039283166001600160a01b0319918216179091559284015160028084018054929093169190941617905560608301516003820155608083015160048201805491151560ff1983168117825560a08601519394919261ff001990911661ffff19909116179061010090849081111561150457611504612eb0565b02179055505060016007555090506107c8565b61151f612b8d565b600082815260146020908152604091829020825160c0810184528154815260018201546001600160a01b03908116938201939093526002808301549093169381019390935260038101546060840152600481015460ff80821615156080860152919260a08501926101009092049091169081111561159f5761159f612eb0565b60028111156115b0576115b0612eb0565b90525092915050565b6060600180546107dd906132b1565b6016602052600090815260409020805460018201546002830180546001600160a01b039093169391926115fa906132b1565b80601f0160208091040260200160405190810160405280929190818152602001828054611626906132b1565b80156116735780601f1061164857610100808354040283529160200191611673565b820191906000526020600020905b81548152906001019060200180831161165657829003601f168201915b505050505090806003018054611688906132b1565b80601f01602080910402602001604051908101604052809291908181526020018280546116b4906132b1565b80156117015780601f106116d657610100808354040283529160200191611701565b820191906000526020600020905b8154815290600101906020018083116116e457829003601f168201915b5050505050908060040154905085565b61171961202e565b6000818152601460205260409020600481015460ff1661177b5760405162461bcd60e51b815260206004820152601760248201527f4e4654206e6f74206c697374656420666f722073616c65000000000000000000604482015260640161090e565b806003015434146117c55760405162461bcd60e51b8152602060048201526014602482015273125b98dbdc9c9958dd081c1c9a58d9481cd95b9d60621b604482015260640161090e565b60028101805460048301805460ff191690556001830180546001600160a01b031990811633179091558116909155600e80546001600160a01b039092169190600061180f83613358565b919050555061181f303385612058565b600854600f546040516001600160a01b039092169181156108fc0291906000818181858888f1935050505015801561185b573d6000803e3d6000fd5b50806001600160a01b03166108fc600f54346118779190613387565b6040518115909202916000818181858888f1935050505015801561189f573d6000803e3d6000fd5b5050506118ac6001600755565b50565b6108943383836124c6565b6118c261202e565b600034116119125760405162461bcd60e51b815260206004820152601b60248201527f4d7573742073656e6420736f6d652045544820746f20656e7465720000000000604482015260640161090e565b3361191c826110e3565b6001600160a01b03161461196a5760405162461bcd60e51b8152602060048201526015602482015274165bdd481b5d5cdd081bdddb881d1a1a5cc8139195605a1b604482015260640161090e565b601154600090815260176020908152604080832033845290915290205460ff16156119d75760405162461bcd60e51b815260206004820152601b60248201527f416c726561647920656e7465726564207468697320626174746c650000000000604482015260640161090e565b60115460009081526013602052604090205460ff1615611a455760405162461bcd60e51b815260206004820152602360248201527f426174746c652077696e6e65722073656c656374696f6e20696e2070726f677260448201526265737360e81b606482015260840161090e565b600081815260146020526040812060040154610100900460ff1690611a6982612565565b90503460106000828254611a7d919061339a565b90915550506011546000908152601560209081526040808320815160608101835233815280840188815292810186815282546001808201855593875294909520815160039095020180546001600160a01b0319166001600160a01b0390951694909417845591519083015591516002820190611af990826133f4565b5050601154600090815260176020908152604080832033808552925291829020805460ff1916600117905590519091507f3503fb3e80a897518d3947ed668072584b3d239bc35b69a223a9fef208a6352390611b5890869085906134b3565b60405180910390a250506118ac6001600755565b611b77848484610921565b6109a63385858585612638565b6060611b8f82611e8a565b5060008281526006602052604081208054611ba9906132b1565b80601f0160208091040260200160405190810160405280929190818152602001828054611bd5906132b1565b8015611c225780601f10611bf757610100808354040283529160200191611c22565b820191906000526020600020905b815481529060010190602001808311611c0557829003601f168201915b505050505090506000611c4060408051602081019091526000815290565b90508051600003611c52575092915050565b815115611c84578082604051602001611c6c9291906134cc565b60405160208183030381529060405292505050919050565b611c8d84612763565b949350505050565b600d5460609060008167ffffffffffffffff811115611cb657611cb6612cb5565b604051908082528060200260200182016040528015611cef57816020015b611cdc612b8d565b815260200190600190039081611cd45790505b50905060015b828111611dca57600081815260146020908152604091829020825160c0810184528154815260018201546001600160a01b03908116938201939093526002808301549093169381019390935260038101546060840152600481015460ff80821615156080860152919260a085019261010090920490911690811115611d7c57611d7c612eb0565b6002811115611d8d57611d8d612eb0565b90525082611d9c600184613387565b81518110611dac57611dac613371565b60200260200101819052508080611dc290613358565b915050611cf5565b5092915050565b6001600160a01b03918216600090815260056020908152604080832093909416825291909152205460ff1690565b611e07612001565b6001600160a01b038116611e3157604051631e4fbdf760e01b81526000600482015260240161090e565b6118ac8161240a565b60006001600160e01b031982166380ac58cd60e01b1480611e6b57506001600160e01b03198216635b5e139f60e01b145b806107c857506301ffc9a760e01b6001600160e01b03198316146107c8565b6000818152600260205260408120546001600160a01b0316806107c857604051637e27328960e01b81526004810184905260240161090e565b6109c783838360016127d8565b600082815260126020526040812054825190919083908290611ef457611ef4613371565b602002602001015190506109a68282612108565b6000828152600260205260408120546001600160a01b0390811690831615611f3557611f358184866128de565b6001600160a01b03811615611f7357611f526000856000806127d8565b6001600160a01b038116600090815260036020526040902080546000190190555b6001600160a01b03851615611fa2576001600160a01b0385166000908152600360205260409020805460010190555b60008481526002602052604080822080546001600160a01b0319166001600160a01b0389811691821790925591518793918516917fddf252ad1be2c89b69c2b068fc378daa952ba7f163c4a11628f55a4df523b3ef91a4949350505050565b6008546001600160a01b0316331461121e5760405163118cdaa760e01b815233600482015260240161090e565b60026007540361205157604051633ee5aeb560e01b815260040160405180910390fd5b6002600755565b6001600160a01b03821661208257604051633250574960e11b81526000600482015260240161090e565b600061209083836000611f08565b90506001600160a01b0381166120bc57604051637e27328960e01b81526004810183905260240161090e565b836001600160a01b0316816001600160a01b0316146109a6576040516364283d7b60e01b81526001600160a01b038086166004830152602482018490528216604482015260640161090e565b6000828152601560205260408120546121219083613511565b6000848152601560205260408120805492935090918390811061214657612146613371565b90600052602060002090600302016040518060600160405290816000820160009054906101000a90046001600160a01b03166001600160a01b03166001600160a01b03168152602001600182015481526020016002820180546121a8906132b1565b80601f01602080910402602001604051908101604052809291908181526020018280546121d4906132b1565b80156122215780601f106121f657610100808354040283529160200191612221565b820191906000526020600020905b81548152906001019060200180831161220457829003601f168201915b505050505081525050905060006064601054604661223f9190613525565b612249919061353c565b905060008160105461225b9190613387565b9050600061226c8460200151611b84565b6040805160a08101825286516001600160a01b0390811682526020808901518184019081528985015184860190815260608501879052608085018a905260008e8152601690935294909120835181546001600160a01b031916931692909217825551600182015591519293509160028201906122e890826133f4565b50606082015160038201906122fd90826133f4565b506080919091015160049091015583516040516001600160a01b039091169084156108fc029085906000818181858888f19350505050158015612344573d6000803e3d6000fd5b506008546040516001600160a01b039091169083156108fc029084906000818181858888f1935050505015801561237f573d6000803e3d6000fd5b5083600001516001600160a01b03167fb945082be535f1658253a43018fef04a04a7d0da45250bfd763966a7f8840fb98560200151866040015184876040516123cb9493929190613550565b60405180910390a26000878152601360205260408120805460ff1916905560118054916123f783613358565b9091555050600060105550505050505050565b600880546001600160a01b038381166001600160a01b0319831681179093556040519116919082907f8be0079c531659141344cd1fd0a4f28419497f9722a3daafe3b4186f6b6457e090600090a35050565b610894828260405180602001604052806000815250612942565b600082815260066020526040902061248e82826133f4565b506040518281527ff8e1a15aba9398e019f0b49df1a4fde98ee17ae345cb5f6b5e2c27f5033e8ce79060200160405180910390a15050565b6001600160a01b0382166124f857604051630b61174360e31b81526001600160a01b038316600482015260240161090e565b6001600160a01b03838116600081815260056020908152604080832094871680845294825291829020805460ff191686151590811790915591519182527f17307eab39ab6107e8899845ad3d59bd9653f200f220920489ca2b5937696c31910160405180910390a3505050565b6060600082600281111561257b5761257b612eb0565b036125a3575050604080518082019091526007815266417274776f726b60c81b602082015290565b60018260028111156125b7576125b7612eb0565b036125dd575050604080518082019091526005815264566964656f60d81b602082015290565b60028260028111156125f1576125f1612eb0565b0361261557505060408051808201909152600381526223a4a360e91b602082015290565b50506040805180820190915260078152662ab735b737bbb760c91b602082015290565b6001600160a01b0383163b1561275c57604051630a85bd0160e11b81526001600160a01b0384169063150b7a029061267a90889088908790879060040161358d565b6020604051808303816000875af19250505080156126b5575060408051601f3d908101601f191682019092526126b2918101906135c0565b60015b61271e573d8080156126e3576040519150601f19603f3d011682016040523d82523d6000602084013e6126e8565b606091505b50805160000361271657604051633250574960e11b81526001600160a01b038516600482015260240161090e565b805160208201fd5b6001600160e01b03198116630a85bd0160e11b1461275a57604051633250574960e11b81526001600160a01b038516600482015260240161090e565b505b5050505050565b606061276e82611e8a565b50600061278660408051602081019091526000815290565b905060008151116127a657604051806020016040528060008152506127d1565b806127b08461295a565b6040516020016127c19291906134cc565b6040516020818303038152906040525b9392505050565b80806127ec57506001600160a01b03821615155b156128ae5760006127fc84611e8a565b90506001600160a01b038316158015906128285750826001600160a01b0316816001600160a01b031614155b801561283b57506128398184611dd1565b155b156128645760405163a9fbf51f60e01b81526001600160a01b038416600482015260240161090e565b81156128ac5783856001600160a01b0316826001600160a01b03167f8c5be1e5ebec7d5bd14f71427d1e84f3dd0314c0f7b2291e5b200ac8c7c3b92560405160405180910390a45b505b5050600090815260046020526040902080546001600160a01b0319166001600160a01b0392909216919091179055565b6128e98383836129ed565b6109c7576001600160a01b03831661291757604051637e27328960e01b81526004810182905260240161090e565b60405163177e802f60e01b81526001600160a01b03831660048201526024810182905260440161090e565b61294c8383612a50565b6109c7336000858585612638565b6060600061296783612ab5565b600101905060008167ffffffffffffffff81111561298757612987612cb5565b6040519080825280601f01601f1916602001820160405280156129b1576020820181803683370190505b5090508181016020015b600019016f181899199a1a9b1b9c1cb0b131b232b360811b600a86061a8153600a85049450846129bb57509392505050565b60006001600160a01b03831615801590611c8d5750826001600160a01b0316846001600160a01b03161480612a275750612a278484611dd1565b80611c8d5750506000908152600460205260409020546001600160a01b03908116911614919050565b6001600160a01b038216612a7a57604051633250574960e11b81526000600482015260240161090e565b6000612a8883836000611f08565b90506001600160a01b038116156109c7576040516339e3563760e11b81526000600482015260240161090e565b60008072184f03e93ff9f4daa797ed6e38ed64bf6a1f0160401b8310612af45772184f03e93ff9f4daa797ed6e38ed64bf6a1f0160401b830492506040015b6d04ee2d6d415b85acef81000000008310612b20576d04ee2d6d415b85acef8100000000830492506020015b662386f26fc100008310612b3e57662386f26fc10000830492506010015b6305f5e1008310612b56576305f5e100830492506008015b6127108310612b6a57612710830492506004015b60648310612b7c576064830492506002015b600a83106107c85760010192915050565b6040805160c08101825260008082526020820181905291810182905260608101829052608081018290529060a082015290565b6001600160e01b0319811681146118ac57600080fd5b600060208284031215612be857600080fd5b81356127d181612bc0565b60005b83811015612c0e578181015183820152602001612bf6565b50506000910152565b60008151808452612c2f816020860160208601612bf3565b601f01601f19169290920160200192915050565b6020815260006127d16020830184612c17565b600060208284031215612c6857600080fd5b5035919050565b80356001600160a01b0381168114612c8657600080fd5b919050565b60008060408385031215612c9e57600080fd5b612ca783612c6f565b946020939093013593505050565b634e487b7160e01b600052604160045260246000fd5b604051601f8201601f1916810167ffffffffffffffff81118282101715612cf457612cf4612cb5565b604052919050565b60008060408385031215612d0f57600080fd5b82359150602083013567ffffffffffffffff811115612d2d57600080fd5b8301601f81018513612d3e57600080fd5b803567ffffffffffffffff811115612d5857612d58612cb5565b8060051b612d6860208201612ccb565b91825260208184018101929081019088841115612d8457600080fd5b6020850194505b83851015612daa57843580835260209586019590935090910190612d8b565b80955050505050509250929050565b600080600060608486031215612dce57600080fd5b612dd784612c6f565b9250612de560208501612c6f565b929592945050506040919091013590565b60008060408385031215612e0957600080fd5b82359150612e1960208401612c6f565b90509250929050565b6020815260018060a01b038251166020820152602082015160408201526000604083015160a06060840152612e5a60c0840182612c17565b90506060840151601f19848303016080850152612e778282612c17565b915050608084015160a08401528091505092915050565b60008060408385031215612ea157600080fd5b50508035926020909101359150565b634e487b7160e01b600052602160045260246000fd5b60038110612ee457634e487b7160e01b600052602160045260246000fd5b9052565b8051825260018060a01b03602082015116602083015260018060a01b0360408201511660408301526060810151606083015260808101511515608083015260a08101516109c760a0840182612ec6565b602080825282518282018190526000918401906040840190835b81811015612f7b57612f65838551612ee8565b6020939093019260c09290920191600101612f52565b509095945050505050565b60018060a01b0384168152826020820152606060408201526000612fad6060830184612c17565b95945050505050565b600060208284031215612fc857600080fd5b6127d182612c6f565b6000602082016020835280845180835260408501915060408160051b86010192506020860160005b8281101561305457868503603f19018452815180516001600160a01b031686526020808201519087015260409081015160609187018290529061303e90870182612c17565b9550506020938401939190910190600101612ff9565b50929695505050505050565b6000806000806080858703121561307657600080fd5b8435935060208501359250604085013563ffffffff8116811461309857600080fd5b9150606085013561ffff811681146130af57600080fd5b939692955090935050565b60008067ffffffffffffffff8411156130d5576130d5612cb5565b50601f8301601f19166020016130ea81612ccb565b9150508281528383830111156130ff57600080fd5b828260208301376000602084830101529392505050565b6000806040838503121561312957600080fd5b823567ffffffffffffffff81111561314057600080fd5b8301601f8101851361315157600080fd5b613160858235602084016130ba565b92505060208301356003811061317557600080fd5b809150509250929050565b60c081016107c88284612ee8565b60018060a01b038616815284602082015260a0604082015260006131b560a0830186612c17565b82810360608401526131c78186612c17565b9150508260808301529695505050505050565b600080604083850312156131ed57600080fd5b6131f683612c6f565b91506020830135801515811461317557600080fd5b6000806000806080858703121561322157600080fd5b61322a85612c6f565b935061323860208601612c6f565b925060408501359150606085013567ffffffffffffffff81111561325b57600080fd5b8501601f8101871361326c57600080fd5b61327b878235602084016130ba565b91505092959194509250565b6000806040838503121561329a57600080fd5b6132a383612c6f565b9150612e1960208401612c6f565b600181811c908216806132c557607f821691505b6020821081036132e557634e487b7160e01b600052602260045260246000fd5b50919050565b6000602082840312156132fd57600080fd5b5051919050565b6001600160a01b0386811682528516602082015260408101849052821515606082015260a081016133386080830184612ec6565b9695505050505050565b634e487b7160e01b600052601160045260246000fd5b60006001820161336a5761336a613342565b5060010190565b634e487b7160e01b600052603260045260246000fd5b818103818111156107c8576107c8613342565b808201808211156107c8576107c8613342565b601f8211156109c757806000526020600020601f840160051c810160208510156133d45750805b601f840160051c820191505b8181101561275c57600081556001016133e0565b815167ffffffffffffffff81111561340e5761340e612cb5565b6134228161341c84546132b1565b846133ad565b6020601f821160018114613456576000831561343e5750848201515b600019600385901b1c1916600184901b17845561275c565b600084815260208120601f198516915b828110156134865787850151825560209485019460019092019101613466565b50848210156134a45786840151600019600387901b60f8161c191681555b50505050600190811b01905550565b828152604060208201526000611c8d6040830184612c17565b600083516134de818460208801612bf3565b8351908301906134f2818360208801612bf3565b01949350505050565b634e487b7160e01b600052601260045260246000fd5b600082613520576135206134fb565b500690565b80820281158282048414176107c8576107c8613342565b60008261354b5761354b6134fb565b500490565b8481526080602082015260006135696080830186612c17565b828103604084015261357b8186612c17565b91505082606083015295945050505050565b6001600160a01b038581168252841660208201526040810183905260806060820181905260009061333890830184612c17565b6000602082840312156135d257600080fd5b81516127d181612bc056fea2646970667358221220be0d4eaf19b3887e0360371464385715498c412dc5cb1f9ff5a9ee9b0a9886d064736f6c634300081c0033",
  "linkReferences": {},
  "deployedLinkReferences": {}
}